{
  "contractName": "BoboGlyph",
  "abi": [
    {
      "inputs": [
        {
          "internalType": "string",
          "name": "baseURI",
          "type": "string"
        }
      ],
      "stateMutability": "nonpayable",
      "type": "constructor"
    },
    {
      "anonymous": false,
      "inputs": [
        {
          "indexed": true,
          "internalType": "address",
          "name": "owner",
          "type": "address"
        },
        {
          "indexed": true,
          "internalType": "address",
          "name": "approved",
          "type": "address"
        },
        {
          "indexed": true,
          "internalType": "uint256",
          "name": "tokenId",
          "type": "uint256"
        }
      ],
      "name": "Approval",
      "type": "event"
    },
    {
      "anonymous": false,
      "inputs": [
        {
          "indexed": true,
          "internalType": "address",
          "name": "owner",
          "type": "address"
        },
        {
          "indexed": true,
          "internalType": "address",
          "name": "operator",
          "type": "address"
        },
        {
          "indexed": false,
          "internalType": "bool",
          "name": "approved",
          "type": "bool"
        }
      ],
      "name": "ApprovalForAll",
      "type": "event"
    },
    {
      "anonymous": false,
      "inputs": [
        {
          "indexed": false,
          "internalType": "address",
          "name": "to",
          "type": "address"
        },
        {
          "indexed": true,
          "internalType": "uint256",
          "name": "id",
          "type": "uint256"
        }
      ],
      "name": "OnePieceCreated",
      "type": "event"
    },
    {
      "anonymous": false,
      "inputs": [
        {
          "indexed": true,
          "internalType": "address",
          "name": "previousOwner",
          "type": "address"
        },
        {
          "indexed": true,
          "internalType": "address",
          "name": "newOwner",
          "type": "address"
        }
      ],
      "name": "OwnershipTransferred",
      "type": "event"
    },
    {
      "anonymous": false,
      "inputs": [
        {
          "indexed": false,
          "internalType": "address",
          "name": "account",
          "type": "address"
        }
      ],
      "name": "Paused",
      "type": "event"
    },
    {
      "anonymous": false,
      "inputs": [
        {
          "indexed": true,
          "internalType": "address",
          "name": "from",
          "type": "address"
        },
        {
          "indexed": true,
          "internalType": "address",
          "name": "to",
          "type": "address"
        },
        {
          "indexed": true,
          "internalType": "uint256",
          "name": "tokenId",
          "type": "uint256"
        }
      ],
      "name": "Transfer",
      "type": "event"
    },
    {
      "anonymous": false,
      "inputs": [
        {
          "indexed": false,
          "internalType": "address",
          "name": "account",
          "type": "address"
        }
      ],
      "name": "Unpaused",
      "type": "event"
    },
    {
      "inputs": [],
      "name": "SALE_OPEN",
      "outputs": [
        {
          "internalType": "bool",
          "name": "",
          "type": "bool"
        }
      ],
      "stateMutability": "view",
      "type": "function"
    },
    {
      "inputs": [
        {
          "internalType": "address",
          "name": "",
          "type": "address"
        }
      ],
      "name": "_whitelist",
      "outputs": [
        {
          "internalType": "bool",
          "name": "",
          "type": "bool"
        }
      ],
      "stateMutability": "view",
      "type": "function"
    },
    {
      "inputs": [
        {
          "internalType": "address",
          "name": "to",
          "type": "address"
        },
        {
          "internalType": "uint256",
          "name": "tokenId",
          "type": "uint256"
        }
      ],
      "name": "approve",
      "outputs": [],
      "stateMutability": "nonpayable",
      "type": "function"
    },
    {
      "inputs": [
        {
          "internalType": "address",
          "name": "owner",
          "type": "address"
        }
      ],
      "name": "balanceOf",
      "outputs": [
        {
          "internalType": "uint256",
          "name": "",
          "type": "uint256"
        }
      ],
      "stateMutability": "view",
      "type": "function"
    },
    {
      "inputs": [
        {
          "internalType": "uint256",
          "name": "tokenId",
          "type": "uint256"
        }
      ],
      "name": "burn",
      "outputs": [],
      "stateMutability": "nonpayable",
      "type": "function"
    },
    {
      "inputs": [
        {
          "internalType": "uint256",
          "name": "tokenId",
          "type": "uint256"
        }
      ],
      "name": "getApproved",
      "outputs": [
        {
          "internalType": "address",
          "name": "",
          "type": "address"
        }
      ],
      "stateMutability": "view",
      "type": "function"
    },
    {
      "inputs": [
        {
          "internalType": "address",
          "name": "owner",
          "type": "address"
        },
        {
          "internalType": "address",
          "name": "operator",
          "type": "address"
        }
      ],
      "name": "isApprovedForAll",
      "outputs": [
        {
          "internalType": "bool",
          "name": "",
          "type": "bool"
        }
      ],
      "stateMutability": "view",
      "type": "function"
    },
    {
      "inputs": [],
      "name": "name",
      "outputs": [
        {
          "internalType": "string",
          "name": "",
          "type": "string"
        }
      ],
      "stateMutability": "view",
      "type": "function"
    },
    {
      "inputs": [],
      "name": "owner",
      "outputs": [
        {
          "internalType": "address",
          "name": "",
          "type": "address"
        }
      ],
      "stateMutability": "view",
      "type": "function"
    },
    {
      "inputs": [
        {
          "internalType": "uint256",
          "name": "tokenId",
          "type": "uint256"
        }
      ],
      "name": "ownerOf",
      "outputs": [
        {
          "internalType": "address",
          "name": "",
          "type": "address"
        }
      ],
      "stateMutability": "view",
      "type": "function"
    },
    {
      "inputs": [],
      "name": "paused",
      "outputs": [
        {
          "internalType": "bool",
          "name": "",
          "type": "bool"
        }
      ],
      "stateMutability": "view",
      "type": "function"
    },
    {
      "inputs": [],
      "name": "renounceOwnership",
      "outputs": [],
      "stateMutability": "nonpayable",
      "type": "function"
    },
    {
      "inputs": [
        {
          "internalType": "address",
          "name": "from",
          "type": "address"
        },
        {
          "internalType": "address",
          "name": "to",
          "type": "address"
        },
        {
          "internalType": "uint256",
          "name": "tokenId",
          "type": "uint256"
        }
      ],
      "name": "safeTransferFrom",
      "outputs": [],
      "stateMutability": "nonpayable",
      "type": "function"
    },
    {
      "inputs": [
        {
          "internalType": "address",
          "name": "from",
          "type": "address"
        },
        {
          "internalType": "address",
          "name": "to",
          "type": "address"
        },
        {
          "internalType": "uint256",
          "name": "tokenId",
          "type": "uint256"
        },
        {
          "internalType": "bytes",
          "name": "_data",
          "type": "bytes"
        }
      ],
      "name": "safeTransferFrom",
      "outputs": [],
      "stateMutability": "nonpayable",
      "type": "function"
    },
    {
      "inputs": [
        {
          "internalType": "address",
          "name": "operator",
          "type": "address"
        },
        {
          "internalType": "bool",
          "name": "approved",
          "type": "bool"
        }
      ],
      "name": "setApprovalForAll",
      "outputs": [],
      "stateMutability": "nonpayable",
      "type": "function"
    },
    {
      "inputs": [],
      "name": "symbol",
      "outputs": [
        {
          "internalType": "string",
          "name": "",
          "type": "string"
        }
      ],
      "stateMutability": "view",
      "type": "function"
    },
    {
      "inputs": [
        {
          "internalType": "uint256",
          "name": "index",
          "type": "uint256"
        }
      ],
      "name": "tokenByIndex",
      "outputs": [
        {
          "internalType": "uint256",
          "name": "",
          "type": "uint256"
        }
      ],
      "stateMutability": "view",
      "type": "function"
    },
    {
      "inputs": [
        {
          "internalType": "address",
          "name": "owner",
          "type": "address"
        },
        {
          "internalType": "uint256",
          "name": "index",
          "type": "uint256"
        }
      ],
      "name": "tokenOfOwnerByIndex",
      "outputs": [
        {
          "internalType": "uint256",
          "name": "",
          "type": "uint256"
        }
      ],
      "stateMutability": "view",
      "type": "function"
    },
    {
      "inputs": [
        {
          "internalType": "uint256",
          "name": "tokenId",
          "type": "uint256"
        }
      ],
      "name": "tokenURI",
      "outputs": [
        {
          "internalType": "string",
          "name": "",
          "type": "string"
        }
      ],
      "stateMutability": "view",
      "type": "function"
    },
    {
      "inputs": [],
      "name": "totalSupply",
      "outputs": [
        {
          "internalType": "uint256",
          "name": "",
          "type": "uint256"
        }
      ],
      "stateMutability": "view",
      "type": "function"
    },
    {
      "inputs": [
        {
          "internalType": "address",
          "name": "from",
          "type": "address"
        },
        {
          "internalType": "address",
          "name": "to",
          "type": "address"
        },
        {
          "internalType": "uint256",
          "name": "tokenId",
          "type": "uint256"
        }
      ],
      "name": "transferFrom",
      "outputs": [],
      "stateMutability": "nonpayable",
      "type": "function"
    },
    {
      "inputs": [
        {
          "internalType": "address",
          "name": "newOwner",
          "type": "address"
        }
      ],
      "name": "transferOwnership",
      "outputs": [],
      "stateMutability": "nonpayable",
      "type": "function"
    },
    {
      "inputs": [
        {
          "internalType": "address payable",
          "name": "_to",
          "type": "address"
        },
        {
          "internalType": "uint256[]",
          "name": "_ids",
          "type": "uint256[]"
        }
      ],
      "name": "mint",
      "outputs": [],
      "stateMutability": "payable",
      "type": "function"
    },
    {
      "inputs": [],
      "name": "startPreSale",
      "outputs": [],
      "stateMutability": "nonpayable",
      "type": "function"
    },
    {
      "inputs": [],
      "name": "startPublicSale",
      "outputs": [],
      "stateMutability": "nonpayable",
      "type": "function"
    },
    {
      "inputs": [],
      "name": "flipSaleState",
      "outputs": [],
      "stateMutability": "nonpayable",
      "type": "function"
    },
    {
      "inputs": [
        {
          "internalType": "address",
          "name": "attender",
          "type": "address"
        }
      ],
      "name": "addToWhitelist",
      "outputs": [],
      "stateMutability": "nonpayable",
      "type": "function"
    },
    {
      "inputs": [
        {
          "internalType": "address",
          "name": "attender",
          "type": "address"
        }
      ],
      "name": "removeFromWhitelist",
      "outputs": [],
      "stateMutability": "nonpayable",
      "type": "function"
    },
    {
      "inputs": [
        {
          "internalType": "string",
          "name": "baseURI",
          "type": "string"
        }
      ],
      "name": "setBaseURI",
      "outputs": [],
      "stateMutability": "nonpayable",
      "type": "function"
    },
    {
      "inputs": [
        {
          "internalType": "uint256",
          "name": "_count",
          "type": "uint256"
        }
      ],
      "name": "price",
      "outputs": [
        {
          "internalType": "uint256",
          "name": "",
          "type": "uint256"
        }
      ],
      "stateMutability": "view",
      "type": "function"
    },
    {
      "inputs": [],
      "name": "occupiedList",
      "outputs": [
        {
          "internalType": "uint256[]",
          "name": "",
          "type": "uint256[]"
        }
      ],
      "stateMutability": "view",
      "type": "function"
    },
    {
      "inputs": [],
      "name": "maxMint",
      "outputs": [
        {
          "internalType": "uint256",
          "name": "",
          "type": "uint256"
        }
      ],
      "stateMutability": "view",
      "type": "function"
    },
    {
      "inputs": [],
      "name": "maxSales",
      "outputs": [
        {
          "internalType": "uint256",
          "name": "",
          "type": "uint256"
        }
      ],
      "stateMutability": "view",
      "type": "function"
    },
    {
      "inputs": [],
      "name": "maxSupply",
      "outputs": [
        {
          "internalType": "uint256",
          "name": "",
          "type": "uint256"
        }
      ],
      "stateMutability": "pure",
      "type": "function"
    },
    {
      "inputs": [],
      "name": "raised",
      "outputs": [
        {
          "internalType": "uint256",
          "name": "",
          "type": "uint256"
        }
      ],
      "stateMutability": "view",
      "type": "function"
    },
    {
      "inputs": [
        {
          "internalType": "address",
          "name": "_owner",
          "type": "address"
        }
      ],
      "name": "getTokenIdsOfWallet",
      "outputs": [
        {
          "internalType": "uint256[]",
          "name": "",
          "type": "uint256[]"
        }
      ],
      "stateMutability": "view",
      "type": "function"
    },
    {
      "inputs": [],
      "name": "withdrawAll",
      "outputs": [],
      "stateMutability": "payable",
      "type": "function"
    },
    {
      "inputs": [
        {
          "internalType": "bytes4",
          "name": "interfaceId",
          "type": "bytes4"
        }
      ],
      "name": "supportsInterface",
      "outputs": [
        {
          "internalType": "bool",
          "name": "",
          "type": "bool"
        }
      ],
      "stateMutability": "view",
      "type": "function"
    }
  ],
  "bytecode": "0x60806040526000600c60006101000a81548160ff02191690831515021790555073dea5e36dc33a3aed5ca275e463edd283f680d1c6601560006101000a81548173ffffffffffffffffffffffffffffffffffffffff021916908373ffffffffffffffffffffffffffffffffffffffff16021790555073b1a37de9227eb305ecad81a6c0a10ebe36c50653601660006101000a81548173ffffffffffffffffffffffffffffffffffffffff021916908373ffffffffffffffffffffffffffffffffffffffff1602179055507342a65a7a544e66423aa1530780d90c90de2b41ea601760006101000a81548173ffffffffffffffffffffffffffffffffffffffff021916908373ffffffffffffffffffffffffffffffffffffffff1602179055503480156200012b57600080fd5b5060405162005b4f38038062005b4f83398181016040528101906200015191906200052d565b6040518060400160405280600a81526020017f426f626f676c79706873000000000000000000000000000000000000000000008152506040518060400160405280600481526020017f4242474c000000000000000000000000000000000000000000000000000000008152508160009080519060200190620001d5929190620003ff565b508060019080519060200190620001ee929190620003ff565b50505062000211620002056200025c60201b60201c565b6200026460201b60201c565b6000600a60146101000a81548160ff0219169083151502179055506200023d816200032a60201b60201c565b6000600d819055506008600e819055506008600f819055505062000785565b600033905090565b6000600a60009054906101000a900473ffffffffffffffffffffffffffffffffffffffff16905081600a60006101000a81548173ffffffffffffffffffffffffffffffffffffffff021916908373ffffffffffffffffffffffffffffffffffffffff1602179055508173ffffffffffffffffffffffffffffffffffffffff168173ffffffffffffffffffffffffffffffffffffffff167f8be0079c531659141344cd1fd0a4f28419497f9722a3daafe3b4186f6b6457e060405160405180910390a35050565b6200033a6200025c60201b60201c565b73ffffffffffffffffffffffffffffffffffffffff1662000360620003d560201b60201c565b73ffffffffffffffffffffffffffffffffffffffff1614620003b9576040517f08c379a0000000000000000000000000000000000000000000000000000000008152600401620003b090620005a5565b60405180910390fd5b8060149080519060200190620003d1929190620003ff565b5050565b6000600a60009054906101000a900473ffffffffffffffffffffffffffffffffffffffff16905090565b8280546200040d906200066d565b90600052602060002090601f0160209004810192826200043157600085556200047d565b82601f106200044c57805160ff19168380011785556200047d565b828001600101855582156200047d579182015b828111156200047c5782518255916020019190600101906200045f565b5b5090506200048c919062000490565b5090565b5b80821115620004ab57600081600090555060010162000491565b5090565b6000620004c6620004c084620005f0565b620005c7565b905082815260208101848484011115620004e557620004e46200073c565b5b620004f284828562000637565b509392505050565b600082601f83011262000512576200051162000737565b5b815162000524848260208601620004af565b91505092915050565b60006020828403121562000546576200054562000746565b5b600082015167ffffffffffffffff81111562000567576200056662000741565b5b6200057584828501620004fa565b91505092915050565b60006200058d60208362000626565b91506200059a826200075c565b602082019050919050565b60006020820190508181036000830152620005c0816200057e565b9050919050565b6000620005d3620005e6565b9050620005e18282620006a3565b919050565b6000604051905090565b600067ffffffffffffffff8211156200060e576200060d62000708565b5b62000619826200074b565b9050602081019050919050565b600082825260208201905092915050565b60005b83811015620006575780820151818401526020810190506200063a565b8381111562000667576000848401525b50505050565b600060028204905060018216806200068657607f821691505b602082108114156200069d576200069c620006d9565b5b50919050565b620006ae826200074b565b810181811067ffffffffffffffff82111715620006d057620006cf62000708565b5b80604052505050565b7f4e487b7100000000000000000000000000000000000000000000000000000000600052602260045260246000fd5b7f4e487b7100000000000000000000000000000000000000000000000000000000600052604160045260246000fd5b600080fd5b600080fd5b600080fd5b600080fd5b6000601f19601f8301169050919050565b7f4f776e61626c653a2063616c6c6572206973206e6f7420746865206f776e6572600082015250565b6153ba80620007956000396000f3fe6080604052600436106102255760003560e01c80637501f74111610123578063bfdf9b6e116100ab578063e43252d71161006f578063e43252d7146107c7578063e985e9c5146107f0578063eef625081461082d578063f0ea4bfc1461086a578063f2fde38b1461089557610225565b8063bfdf9b6e146106db578063c87b56dd14610706578063cfdb63ac14610743578063d5abeb0114610780578063de836ebd146107ab57610225565b80638e26d2aa116100f25780638e26d2aa1461060857806395d89b4114610633578063a22cb4651461065e578063a769cba914610687578063b88d4fde146106b257610225565b80637501f7411461057f578063853828b6146105aa5780638ab1d681146105b45780638da5cb5b146105dd57610225565b806334918dfd116101b157806355f804b31161017557806355f804b31461049a5780635c975abb146104c35780636352211e146104ee57806370a082311461052b578063715018a61461056857610225565b806334918dfd146103dd57806342842e0e146103f457806342966c681461041d5780634f6ccce71461044657806355dd574c1461048357610225565b80630c1c972a116101f85780630c1c972a146102f857806318160ddd1461030f57806323b872dd1461033a57806326a49e37146103635780632f745c59146103a057610225565b806301ffc9a71461022a57806306fdde0314610267578063081812fc14610292578063095ea7b3146102cf575b600080fd5b34801561023657600080fd5b50610251600480360381019061024c9190613996565b6108be565b60405161025e9190614107565b60405180910390f35b34801561027357600080fd5b5061027c6108d0565b6040516102899190614122565b60405180910390f35b34801561029e57600080fd5b506102b960048036038101906102b49190613a39565b610962565b6040516102c69190614063565b60405180910390f35b3480156102db57600080fd5b506102f660048036038101906102f19190613956565b6109e7565b005b34801561030457600080fd5b5061030d610aff565b005b34801561031b57600080fd5b50610324610bd3565b6040516103319190614524565b60405180910390f35b34801561034657600080fd5b50610361600480360381019061035c9190613840565b610be0565b005b34801561036f57600080fd5b5061038a60048036038101906103859190613a39565b610c40565b6040516103979190614524565b60405180910390f35b3480156103ac57600080fd5b506103c760048036038101906103c29190613956565b610c5e565b6040516103d49190614524565b60405180910390f35b3480156103e957600080fd5b506103f2610d03565b005b34801561040057600080fd5b5061041b60048036038101906104169190613840565b610dab565b005b34801561042957600080fd5b50610444600480360381019061043f9190613a39565b610dcb565b005b34801561045257600080fd5b5061046d60048036038101906104689190613a39565b610e27565b60405161047a9190614524565b60405180910390f35b34801561048f57600080fd5b50610498610e98565b005b3480156104a657600080fd5b506104c160048036038101906104bc91906139f0565b610f77565b005b3480156104cf57600080fd5b506104d861100d565b6040516104e59190614107565b60405180910390f35b3480156104fa57600080fd5b5061051560048036038101906105109190613a39565b611024565b6040516105229190614063565b60405180910390f35b34801561053757600080fd5b50610552600480360381019061054d9190613777565b6110d6565b60405161055f9190614524565b60405180910390f35b34801561057457600080fd5b5061057d61118e565b005b34801561058b57600080fd5b50610594611216565b6040516105a19190614524565b60405180910390f35b6105b2611220565b005b3480156105c057600080fd5b506105db60048036038101906105d69190613777565b6113b7565b005b3480156105e957600080fd5b506105f261148e565b6040516105ff9190614063565b60405180910390f35b34801561061457600080fd5b5061061d6114b8565b60405161062a9190614107565b60405180910390f35b34801561063f57600080fd5b506106486114cb565b6040516106559190614122565b60405180910390f35b34801561066a57600080fd5b5061068560048036038101906106809190613916565b61155d565b005b34801561069357600080fd5b5061069c6116de565b6040516106a991906140e5565b60405180910390f35b3480156106be57600080fd5b506106d960048036038101906106d49190613893565b611736565b005b3480156106e757600080fd5b506106f0611798565b6040516106fd9190614524565b60405180910390f35b34801561071257600080fd5b5061072d60048036038101906107289190613a39565b6117a2565b60405161073a9190614122565b60405180910390f35b34801561074f57600080fd5b5061076a60048036038101906107659190613777565b611849565b6040516107779190614107565b60405180910390f35b34801561078c57600080fd5b50610795611869565b6040516107a29190614524565b60405180910390f35b6107c560048036038101906107c091906137a4565b611873565b005b3480156107d357600080fd5b506107ee60048036038101906107e99190613777565b611cfb565b005b3480156107fc57600080fd5b5061081760048036038101906108129190613800565b611dd2565b6040516108249190614107565b60405180910390f35b34801561083957600080fd5b50610854600480360381019061084f9190613777565b611e66565b60405161086191906140e5565b60405180910390f35b34801561087657600080fd5b5061087f611f14565b60405161088c9190614524565b60405180910390f35b3480156108a157600080fd5b506108bc60048036038101906108b79190613777565b611f1c565b005b60006108c982612014565b9050919050565b6060600080546108df9061488c565b80601f016020809104026020016040519081016040528092919081815260200182805461090b9061488c565b80156109585780601f1061092d57610100808354040283529160200191610958565b820191906000526020600020905b81548152906001019060200180831161093b57829003601f168201915b5050505050905090565b600061096d8261208e565b6109ac576040517f08c379a00000000000000000000000000000000000000000000000000000000081526004016109a390614364565b60405180910390fd5b6004600083815260200190815260200160002060009054906101000a900473ffffffffffffffffffffffffffffffffffffffff169050919050565b60006109f282611024565b90508073ffffffffffffffffffffffffffffffffffffffff168373ffffffffffffffffffffffffffffffffffffffff161415610a63576040517f08c379a0000000000000000000000000000000000000000000000000000000008152600401610a5a90614424565b60405180910390fd5b8073ffffffffffffffffffffffffffffffffffffffff16610a826120fa565b73ffffffffffffffffffffffffffffffffffffffff161480610ab15750610ab081610aab6120fa565b611dd2565b5b610af0576040517f08c379a0000000000000000000000000000000000000000000000000000000008152600401610ae7906142c4565b60405180910390fd5b610afa8383612102565b505050565b610b076120fa565b73ffffffffffffffffffffffffffffffffffffffff16610b2561148e565b73ffffffffffffffffffffffffffffffffffffffff1614610b7b576040517f08c379a0000000000000000000000000000000000000000000000000000000008152600401610b7290614384565b60405180910390fd5b6000601360006101000a81548160ff0219169083151502179055506001600c60006101000a81548160ff02191690831515021790555067011c37937e080000600d81905550610465600e819055506014600f81905550565b6000600880549050905090565b610bf1610beb6120fa565b826121bb565b610c30576040517f08c379a0000000000000000000000000000000000000000000000000000000008152600401610c2790614464565b60405180910390fd5b610c3b838383612299565b505050565b6000610c5782600d546124f590919063ffffffff16565b9050919050565b6000610c69836110d6565b8210610caa576040517f08c379a0000000000000000000000000000000000000000000000000000000008152600401610ca190614184565b60405180910390fd5b600660008473ffffffffffffffffffffffffffffffffffffffff1673ffffffffffffffffffffffffffffffffffffffff168152602001908152602001600020600083815260200190815260200160002054905092915050565b610d0b6120fa565b73ffffffffffffffffffffffffffffffffffffffff16610d2961148e565b73ffffffffffffffffffffffffffffffffffffffff1614610d7f576040517f08c379a0000000000000000000000000000000000000000000000000000000008152600401610d7690614384565b60405180910390fd5b600c60009054906101000a900460ff1615600c60006101000a81548160ff021916908315150217905550565b610dc683838360405180602001604052806000815250611736565b505050565b610ddc610dd66120fa565b826121bb565b610e1b576040517f08c379a0000000000000000000000000000000000000000000000000000000008152600401610e12906144c4565b60405180910390fd5b610e248161250b565b50565b6000610e31610bd3565b8210610e72576040517f08c379a0000000000000000000000000000000000000000000000000000000008152600401610e6990614484565b60405180910390fd5b60088281548110610e8657610e85614a25565b5b90600052602060002001549050919050565b610ea06120fa565b73ffffffffffffffffffffffffffffffffffffffff16610ebe61148e565b73ffffffffffffffffffffffffffffffffffffffff1614610f14576040517f08c379a0000000000000000000000000000000000000000000000000000000008152600401610f0b90614384565b60405180910390fd5b6001601360006101000a81548160ff0219169083151502179055506001600c60006101000a81548160ff02191690831515021790555066b1a2bc2ec50000600d81905550600861014d610f679190614679565b600e819055506007600f81905550565b610f7f6120fa565b73ffffffffffffffffffffffffffffffffffffffff16610f9d61148e565b73ffffffffffffffffffffffffffffffffffffffff1614610ff3576040517f08c379a0000000000000000000000000000000000000000000000000000000008152600401610fea90614384565b60405180910390fd5b80601490805190602001906110099291906134d8565b5050565b6000600a60149054906101000a900460ff16905090565b6000806002600084815260200190815260200160002060009054906101000a900473ffffffffffffffffffffffffffffffffffffffff169050600073ffffffffffffffffffffffffffffffffffffffff168173ffffffffffffffffffffffffffffffffffffffff1614156110cd576040517f08c379a00000000000000000000000000000000000000000000000000000000081526004016110c490614304565b60405180910390fd5b80915050919050565b60008073ffffffffffffffffffffffffffffffffffffffff168273ffffffffffffffffffffffffffffffffffffffff161415611147576040517f08c379a000000000000000000000000000000000000000000000000000000000815260040161113e906142e4565b60405180910390fd5b600360008373ffffffffffffffffffffffffffffffffffffffff1673ffffffffffffffffffffffffffffffffffffffff168152602001908152602001600020549050919050565b6111966120fa565b73ffffffffffffffffffffffffffffffffffffffff166111b461148e565b73ffffffffffffffffffffffffffffffffffffffff161461120a576040517f08c379a000000000000000000000000000000000000000000000000000000000815260040161120190614384565b60405180910390fd5b611214600061261c565b565b6000600f54905090565b6112286120fa565b73ffffffffffffffffffffffffffffffffffffffff1661124661148e565b73ffffffffffffffffffffffffffffffffffffffff161461129c576040517f08c379a000000000000000000000000000000000000000000000000000000000815260040161129390614384565b60405180910390fd5b6000479050600081116112e4576040517f08c379a00000000000000000000000000000000000000000000000000000000081526004016112db90614404565b60405180910390fd5b611336601560009054906101000a900473ffffffffffffffffffffffffffffffffffffffff1661133160646113236003866124f590919063ffffffff16565b6126e290919063ffffffff16565b6126f8565b611388601660009054906101000a900473ffffffffffffffffffffffffffffffffffffffff1661138360646113756002866124f590919063ffffffff16565b6126e290919063ffffffff16565b6126f8565b6113b4601760009054906101000a900473ffffffffffffffffffffffffffffffffffffffff16476126f8565b50565b6113bf6120fa565b73ffffffffffffffffffffffffffffffffffffffff166113dd61148e565b73ffffffffffffffffffffffffffffffffffffffff1614611433576040517f08c379a000000000000000000000000000000000000000000000000000000000815260040161142a90614384565b60405180910390fd5b6000601260008373ffffffffffffffffffffffffffffffffffffffff1673ffffffffffffffffffffffffffffffffffffffff16815260200190815260200160002060006101000a81548160ff02191690831515021790555050565b6000600a60009054906101000a900473ffffffffffffffffffffffffffffffffffffffff16905090565b600c60009054906101000a900460ff1681565b6060600180546114da9061488c565b80601f01602080910402602001604051908101604052809291908181526020018280546115069061488c565b80156115535780601f1061152857610100808354040283529160200191611553565b820191906000526020600020905b81548152906001019060200180831161153657829003601f168201915b5050505050905090565b6115656120fa565b73ffffffffffffffffffffffffffffffffffffffff168273ffffffffffffffffffffffffffffffffffffffff1614156115d3576040517f08c379a00000000000000000000000000000000000000000000000000000000081526004016115ca90614284565b60405180910390fd5b80600560006115e06120fa565b73ffffffffffffffffffffffffffffffffffffffff1673ffffffffffffffffffffffffffffffffffffffff16815260200190815260200160002060008473ffffffffffffffffffffffffffffffffffffffff1673ffffffffffffffffffffffffffffffffffffffff16815260200190815260200160002060006101000a81548160ff0219169083151502179055508173ffffffffffffffffffffffffffffffffffffffff1661168d6120fa565b73ffffffffffffffffffffffffffffffffffffffff167f17307eab39ab6107e8899845ad3d59bd9653f200f220920489ca2b5937696c31836040516116d29190614107565b60405180910390a35050565b6060601180548060200260200160405190810160405280929190818152602001828054801561172c57602002820191906000526020600020905b815481526020019060010190808311611718575b5050505050905090565b6117476117416120fa565b836121bb565b611786576040517f08c379a000000000000000000000000000000000000000000000000000000000815260040161177d90614464565b60405180910390fd5b611792848484846127a9565b50505050565b6000600e54905090565b60606117ad8261208e565b6117ec576040517f08c379a00000000000000000000000000000000000000000000000000000000081526004016117e3906143c4565b60405180910390fd5b60006117f6612805565b905060008151116118165760405180602001604052806000815250611841565b8061182084612897565b60405160200161183192919061402a565b6040516020818303038152906040525b915050919050565b60126020528060005260406000206000915054906101000a900460ff1681565b6000610465905090565b61187b61148e565b73ffffffffffffffffffffffffffffffffffffffff166118996120fa565b73ffffffffffffffffffffffffffffffffffffffff161461190b5760011515600c60009054906101000a900460ff1615151461190a576040517f08c379a0000000000000000000000000000000000000000000000000000000008152600401611901906144e4565b60405180910390fd5b5b6104656119166129f8565b1115611957576040517f08c379a000000000000000000000000000000000000000000000000000000000815260040161194e90614504565b60405180910390fd5b61195f61148e565b73ffffffffffffffffffffffffffffffffffffffff1661197d6120fa565b73ffffffffffffffffffffffffffffffffffffffff16146119e1576119a061100d565b156119e0576040517f08c379a00000000000000000000000000000000000000000000000000000000081526004016119d7906141c4565b60405180910390fd5b5b60006119eb6129f8565b905060011515601360009054906101000a900460ff1615151415611a9d5760011515601260008573ffffffffffffffffffffffffffffffffffffffff1673ffffffffffffffffffffffffffffffffffffffff16815260200190815260200160002060009054906101000a900460ff16151514611a9c576040517f08c379a0000000000000000000000000000000000000000000000000000000008152600401611a9390614164565b60405180910390fd5b5b600e54825182611aad9190614679565b1115611aee576040517f08c379a0000000000000000000000000000000000000000000000000000000008152600401611ae5906141e4565b60405180910390fd5b600e54811115611b33576040517f08c379a0000000000000000000000000000000000000000000000000000000008152600401611b2a906144a4565b60405180910390fd5b600f5482511115611b79576040517f08c379a0000000000000000000000000000000000000000000000000000000008152600401611b7090614444565b60405180910390fd5b611b8161148e565b73ffffffffffffffffffffffffffffffffffffffff168373ffffffffffffffffffffffffffffffffffffffff1614611c0057611bbd8251610c40565b341015611bff576040517f08c379a0000000000000000000000000000000000000000000000000000000008152600401611bf690614344565b60405180910390fd5b5b60005b8251811015611ca0576000151560106000858481518110611c2757611c26614a25565b5b6020026020010151815260200190815260200160002060009054906101000a900460ff16151514611c8d576040517f08c379a0000000000000000000000000000000000000000000000000000000008152600401611c84906143e4565b60405180910390fd5b8080611c98906148ef565b915050611c03565b5060005b8251811015611ce457611cd184848381518110611cc457611cc3614a25565b5b6020026020010151612a09565b8080611cdc906148ef565b915050611ca4565b50611cf6611cf061148e565b476126f8565b505050565b611d036120fa565b73ffffffffffffffffffffffffffffffffffffffff16611d2161148e565b73ffffffffffffffffffffffffffffffffffffffff1614611d77576040517f08c379a0000000000000000000000000000000000000000000000000000000008152600401611d6e90614384565b60405180910390fd5b6001601260008373ffffffffffffffffffffffffffffffffffffffff1673ffffffffffffffffffffffffffffffffffffffff16815260200190815260200160002060006101000a81548160ff02191690831515021790555050565b6000600560008473ffffffffffffffffffffffffffffffffffffffff1673ffffffffffffffffffffffffffffffffffffffff16815260200190815260200160002060008373ffffffffffffffffffffffffffffffffffffffff1673ffffffffffffffffffffffffffffffffffffffff16815260200190815260200160002060009054906101000a900460ff16905092915050565b60606000611e73836110d6565b905060008167ffffffffffffffff811115611e9157611e90614a54565b5b604051908082528060200260200182016040528015611ebf5781602001602082028036833780820191505090505b50905060005b82811015611f0957611ed78582610c5e565b828281518110611eea57611ee9614a25565b5b6020026020010181815250508080611f01906148ef565b915050611ec5565b508092505050919050565b600047905090565b611f246120fa565b73ffffffffffffffffffffffffffffffffffffffff16611f4261148e565b73ffffffffffffffffffffffffffffffffffffffff1614611f98576040517f08c379a0000000000000000000000000000000000000000000000000000000008152600401611f8f90614384565b60405180910390fd5b600073ffffffffffffffffffffffffffffffffffffffff168173ffffffffffffffffffffffffffffffffffffffff161415612008576040517f08c379a0000000000000000000000000000000000000000000000000000000008152600401611fff90614204565b60405180910390fd5b6120118161261c565b50565b60007f780e9d63000000000000000000000000000000000000000000000000000000007bffffffffffffffffffffffffffffffffffffffffffffffffffffffff1916827bffffffffffffffffffffffffffffffffffffffffffffffffffffffff19161480612087575061208682612aae565b5b9050919050565b60008073ffffffffffffffffffffffffffffffffffffffff166002600084815260200190815260200160002060009054906101000a900473ffffffffffffffffffffffffffffffffffffffff1673ffffffffffffffffffffffffffffffffffffffff1614159050919050565b600033905090565b816004600083815260200190815260200160002060006101000a81548173ffffffffffffffffffffffffffffffffffffffff021916908373ffffffffffffffffffffffffffffffffffffffff160217905550808273ffffffffffffffffffffffffffffffffffffffff1661217583611024565b73ffffffffffffffffffffffffffffffffffffffff167f8c5be1e5ebec7d5bd14f71427d1e84f3dd0314c0f7b2291e5b200ac8c7c3b92560405160405180910390a45050565b60006121c68261208e565b612205576040517f08c379a00000000000000000000000000000000000000000000000000000000081526004016121fc906142a4565b60405180910390fd5b600061221083611024565b90508073ffffffffffffffffffffffffffffffffffffffff168473ffffffffffffffffffffffffffffffffffffffff16148061227f57508373ffffffffffffffffffffffffffffffffffffffff1661226784610962565b73ffffffffffffffffffffffffffffffffffffffff16145b80612290575061228f8185611dd2565b5b91505092915050565b8273ffffffffffffffffffffffffffffffffffffffff166122b982611024565b73ffffffffffffffffffffffffffffffffffffffff161461230f576040517f08c379a0000000000000000000000000000000000000000000000000000000008152600401612306906143a4565b60405180910390fd5b600073ffffffffffffffffffffffffffffffffffffffff168273ffffffffffffffffffffffffffffffffffffffff16141561237f576040517f08c379a000000000000000000000000000000000000000000000000000000000815260040161237690614264565b60405180910390fd5b61238a838383612b90565b612395600082612102565b6001600360008573ffffffffffffffffffffffffffffffffffffffff1673ffffffffffffffffffffffffffffffffffffffff16815260200190815260200160002060008282546123e5919061475a565b925050819055506001600360008473ffffffffffffffffffffffffffffffffffffffff1673ffffffffffffffffffffffffffffffffffffffff168152602001908152602001600020600082825461243c9190614679565b92505081905550816002600083815260200190815260200160002060006101000a81548173ffffffffffffffffffffffffffffffffffffffff021916908373ffffffffffffffffffffffffffffffffffffffff160217905550808273ffffffffffffffffffffffffffffffffffffffff168473ffffffffffffffffffffffffffffffffffffffff167fddf252ad1be2c89b69c2b068fc378daa952ba7f163c4a11628f55a4df523b3ef60405160405180910390a4505050565b600081836125039190614700565b905092915050565b600061251682611024565b905061252481600084612b90565b61252f600083612102565b6001600360008373ffffffffffffffffffffffffffffffffffffffff1673ffffffffffffffffffffffffffffffffffffffff168152602001908152602001600020600082825461257f919061475a565b925050819055506002600083815260200190815260200160002060006101000a81549073ffffffffffffffffffffffffffffffffffffffff021916905581600073ffffffffffffffffffffffffffffffffffffffff168273ffffffffffffffffffffffffffffffffffffffff167fddf252ad1be2c89b69c2b068fc378daa952ba7f163c4a11628f55a4df523b3ef60405160405180910390a45050565b6000600a60009054906101000a900473ffffffffffffffffffffffffffffffffffffffff16905081600a60006101000a81548173ffffffffffffffffffffffffffffffffffffffff021916908373ffffffffffffffffffffffffffffffffffffffff1602179055508173ffffffffffffffffffffffffffffffffffffffff168173ffffffffffffffffffffffffffffffffffffffff167f8be0079c531659141344cd1fd0a4f28419497f9722a3daafe3b4186f6b6457e060405160405180910390a35050565b600081836126f091906146cf565b905092915050565b60008273ffffffffffffffffffffffffffffffffffffffff168260405161271e9061404e565b60006040518083038185875af1925050503d806000811461275b576040519150601f19603f3d011682016040523d82523d6000602084013e612760565b606091505b50509050806127a4576040517f08c379a000000000000000000000000000000000000000000000000000000000815260040161279b90614244565b60405180910390fd5b505050565b6127b4848484612299565b6127c084848484612ba0565b6127ff576040517f08c379a00000000000000000000000000000000000000000000000000000000081526004016127f6906141a4565b60405180910390fd5b50505050565b6060601480546128149061488c565b80601f01602080910402602001604051908101604052809291908181526020018280546128409061488c565b801561288d5780601f106128625761010080835404028352916020019161288d565b820191906000526020600020905b81548152906001019060200180831161287057829003601f168201915b5050505050905090565b606060008214156128df576040518060400160405280600181526020017f300000000000000000000000000000000000000000000000000000000000000081525090506129f3565b600082905060005b600082146129115780806128fa906148ef565b915050600a8261290a91906146cf565b91506128e7565b60008167ffffffffffffffff81111561292d5761292c614a54565b5b6040519080825280601f01601f19166020018201604052801561295f5781602001600182028036833780820191505090505b5090505b600085146129ec57600182612978919061475a565b9150600a856129879190614938565b60306129939190614679565b60f81b8183815181106129a9576129a8614a25565b5b60200101907effffffffffffffffffffffffffffffffffffffffffffffffffffffffffffff1916908160001a905350600a856129e591906146cf565b9450612963565b8093505050505b919050565b6000612a04600b612d37565b905090565b612a13600b612d45565b612a1d8282612d5b565b60016010600083815260200190815260200160002060006101000a81548160ff0219169083151502179055506011819080600181540180825580915050600190039060005260206000200160009091909190915055807fea003ee8da0ffa6fea72e4d1925044d0497f1b56b14ac9dd17a77967c92e830583604051612aa2919061407e565b60405180910390a25050565b60007f80ac58cd000000000000000000000000000000000000000000000000000000007bffffffffffffffffffffffffffffffffffffffffffffffffffffffff1916827bffffffffffffffffffffffffffffffffffffffffffffffffffffffff19161480612b7957507f5b5e139f000000000000000000000000000000000000000000000000000000007bffffffffffffffffffffffffffffffffffffffffffffffffffffffff1916827bffffffffffffffffffffffffffffffffffffffffffffffffffffffff1916145b80612b895750612b8882612d79565b5b9050919050565b612b9b838383612de3565b505050565b6000612bc18473ffffffffffffffffffffffffffffffffffffffff16612e7d565b15612d2a578373ffffffffffffffffffffffffffffffffffffffff1663150b7a02612bea6120fa565b8786866040518563ffffffff1660e01b8152600401612c0c9493929190614099565b602060405180830381600087803b158015612c2657600080fd5b505af1925050508015612c5757506040513d601f19601f82011682018060405250810190612c5491906139c3565b60015b612cda573d8060008114612c87576040519150601f19603f3d011682016040523d82523d6000602084013e612c8c565b606091505b50600081511415612cd2576040517f08c379a0000000000000000000000000000000000000000000000000000000008152600401612cc9906141a4565b60405180910390fd5b805181602001fd5b63150b7a0260e01b7bffffffffffffffffffffffffffffffffffffffffffffffffffffffff1916817bffffffffffffffffffffffffffffffffffffffffffffffffffffffff191614915050612d2f565b600190505b949350505050565b600081600001549050919050565b6001816000016000828254019250508190555050565b612d75828260405180602001604052806000815250612e90565b5050565b60007f01ffc9a7000000000000000000000000000000000000000000000000000000007bffffffffffffffffffffffffffffffffffffffffffffffffffffffff1916827bffffffffffffffffffffffffffffffffffffffffffffffffffffffff1916149050919050565b612dee838383612eeb565b612df661148e565b73ffffffffffffffffffffffffffffffffffffffff16612e146120fa565b73ffffffffffffffffffffffffffffffffffffffff1614612e7857612e3761100d565b15612e77576040517f08c379a0000000000000000000000000000000000000000000000000000000008152600401612e6e90614144565b60405180910390fd5b5b505050565b600080823b905060008111915050919050565b612e9a8383612fff565b612ea76000848484612ba0565b612ee6576040517f08c379a0000000000000000000000000000000000000000000000000000000008152600401612edd906141a4565b60405180910390fd5b505050565b612ef68383836131cd565b600073ffffffffffffffffffffffffffffffffffffffff168373ffffffffffffffffffffffffffffffffffffffff161415612f3957612f34816131d2565b612f78565b8173ffffffffffffffffffffffffffffffffffffffff168373ffffffffffffffffffffffffffffffffffffffff1614612f7757612f76838261321b565b5b5b600073ffffffffffffffffffffffffffffffffffffffff168273ffffffffffffffffffffffffffffffffffffffff161415612fbb57612fb681613388565b612ffa565b8273ffffffffffffffffffffffffffffffffffffffff168273ffffffffffffffffffffffffffffffffffffffff1614612ff957612ff88282613459565b5b5b505050565b600073ffffffffffffffffffffffffffffffffffffffff168273ffffffffffffffffffffffffffffffffffffffff16141561306f576040517f08c379a000000000000000000000000000000000000000000000000000000000815260040161306690614324565b60405180910390fd5b6130788161208e565b156130b8576040517f08c379a00000000000000000000000000000000000000000000000000000000081526004016130af90614224565b60405180910390fd5b6130c460008383612b90565b6001600360008473ffffffffffffffffffffffffffffffffffffffff1673ffffffffffffffffffffffffffffffffffffffff16815260200190815260200160002060008282546131149190614679565b92505081905550816002600083815260200190815260200160002060006101000a81548173ffffffffffffffffffffffffffffffffffffffff021916908373ffffffffffffffffffffffffffffffffffffffff160217905550808273ffffffffffffffffffffffffffffffffffffffff16600073ffffffffffffffffffffffffffffffffffffffff167fddf252ad1be2c89b69c2b068fc378daa952ba7f163c4a11628f55a4df523b3ef60405160405180910390a45050565b505050565b6008805490506009600083815260200190815260200160002081905550600881908060018154018082558091505060019003906000526020600020016000909190919091505550565b60006001613228846110d6565b613232919061475a565b9050600060076000848152602001908152602001600020549050818114613317576000600660008673ffffffffffffffffffffffffffffffffffffffff1673ffffffffffffffffffffffffffffffffffffffff168152602001908152602001600020600084815260200190815260200160002054905080600660008773ffffffffffffffffffffffffffffffffffffffff1673ffffffffffffffffffffffffffffffffffffffff168152602001908152602001600020600084815260200190815260200160002081905550816007600083815260200190815260200160002081905550505b6007600084815260200190815260200160002060009055600660008573ffffffffffffffffffffffffffffffffffffffff1673ffffffffffffffffffffffffffffffffffffffff16815260200190815260200160002060008381526020019081526020016000206000905550505050565b6000600160088054905061339c919061475a565b90506000600960008481526020019081526020016000205490506000600883815481106133cc576133cb614a25565b5b9060005260206000200154905080600883815481106133ee576133ed614a25565b5b90600052602060002001819055508160096000838152602001908152602001600020819055506009600085815260200190815260200160002060009055600880548061343d5761343c6149f6565b5b6001900381819060005260206000200160009055905550505050565b6000613464836110d6565b905081600660008573ffffffffffffffffffffffffffffffffffffffff1673ffffffffffffffffffffffffffffffffffffffff168152602001908152602001600020600083815260200190815260200160002081905550806007600084815260200190815260200160002081905550505050565b8280546134e49061488c565b90600052602060002090601f016020900481019282613506576000855561354d565b82601f1061351f57805160ff191683800117855561354d565b8280016001018555821561354d579182015b8281111561354c578251825591602001919060010190613531565b5b50905061355a919061355e565b5090565b5b8082111561357757600081600090555060010161355f565b5090565b600061358e61358984614564565b61453f565b905080838252602082019050828560208602820111156135b1576135b0614a88565b5b60005b858110156135e157816135c78882613762565b8452602084019350602083019250506001810190506135b4565b5050509392505050565b60006135fe6135f984614590565b61453f565b90508281526020810184848401111561361a57613619614a8d565b5b61362584828561484a565b509392505050565b600061364061363b846145c1565b61453f565b90508281526020810184848401111561365c5761365b614a8d565b5b61366784828561484a565b509392505050565b60008135905061367e81615311565b92915050565b60008135905061369381615328565b92915050565b600082601f8301126136ae576136ad614a83565b5b81356136be84826020860161357b565b91505092915050565b6000813590506136d68161533f565b92915050565b6000813590506136eb81615356565b92915050565b60008151905061370081615356565b92915050565b600082601f83011261371b5761371a614a83565b5b813561372b8482602086016135eb565b91505092915050565b600082601f83011261374957613748614a83565b5b813561375984826020860161362d565b91505092915050565b6000813590506137718161536d565b92915050565b60006020828403121561378d5761378c614a97565b5b600061379b8482850161366f565b91505092915050565b600080604083850312156137bb576137ba614a97565b5b60006137c985828601613684565b925050602083013567ffffffffffffffff8111156137ea576137e9614a92565b5b6137f685828601613699565b9150509250929050565b6000806040838503121561381757613816614a97565b5b60006138258582860161366f565b92505060206138368582860161366f565b9150509250929050565b60008060006060848603121561385957613858614a97565b5b60006138678682870161366f565b93505060206138788682870161366f565b925050604061388986828701613762565b9150509250925092565b600080600080608085870312156138ad576138ac614a97565b5b60006138bb8782880161366f565b94505060206138cc8782880161366f565b93505060406138dd87828801613762565b925050606085013567ffffffffffffffff8111156138fe576138fd614a92565b5b61390a87828801613706565b91505092959194509250565b6000806040838503121561392d5761392c614a97565b5b600061393b8582860161366f565b925050602061394c858286016136c7565b9150509250929050565b6000806040838503121561396d5761396c614a97565b5b600061397b8582860161366f565b925050602061398c85828601613762565b9150509250929050565b6000602082840312156139ac576139ab614a97565b5b60006139ba848285016136dc565b91505092915050565b6000602082840312156139d9576139d8614a97565b5b60006139e7848285016136f1565b91505092915050565b600060208284031215613a0657613a05614a97565b5b600082013567ffffffffffffffff811115613a2457613a23614a92565b5b613a3084828501613734565b91505092915050565b600060208284031215613a4f57613a4e614a97565b5b6000613a5d84828501613762565b91505092915050565b6000613a72838361400c565b60208301905092915050565b613a8781614814565b82525050565b613a968161478e565b82525050565b6000613aa782614602565b613ab18185614630565b9350613abc836145f2565b8060005b83811015613aed578151613ad48882613a66565b9750613adf83614623565b925050600181019050613ac0565b5085935050505092915050565b613b03816147b2565b82525050565b6000613b148261460d565b613b1e8185614641565b9350613b2e818560208601614859565b613b3781614a9c565b840191505092915050565b6000613b4d82614618565b613b57818561465d565b9350613b67818560208601614859565b613b7081614a9c565b840191505092915050565b6000613b8682614618565b613b90818561466e565b9350613ba0818560208601614859565b80840191505092915050565b6000613bb9602b8361465d565b9150613bc482614aad565b604082019050919050565b6000613bdc602c8361465d565b9150613be782614afc565b604082019050919050565b6000613bff602b8361465d565b9150613c0a82614b4b565b604082019050919050565b6000613c2260328361465d565b9150613c2d82614b9a565b604082019050919050565b6000613c4560108361465d565b9150613c5082614be9565b602082019050919050565b6000613c6860328361465d565b9150613c7382614c12565b604082019050919050565b6000613c8b60268361465d565b9150613c9682614c61565b604082019050919050565b6000613cae601c8361465d565b9150613cb982614cb0565b602082019050919050565b6000613cd1601a8361465d565b9150613cdc82614cd9565b602082019050919050565b6000613cf460248361465d565b9150613cff82614d02565b604082019050919050565b6000613d1760198361465d565b9150613d2282614d51565b602082019050919050565b6000613d3a602c8361465d565b9150613d4582614d7a565b604082019050919050565b6000613d5d60388361465d565b9150613d6882614dc9565b604082019050919050565b6000613d80602a8361465d565b9150613d8b82614e18565b604082019050919050565b6000613da360298361465d565b9150613dae82614e67565b604082019050919050565b6000613dc660208361465d565b9150613dd182614eb6565b602082019050919050565b6000613de9603e8361465d565b9150613df482614edf565b604082019050919050565b6000613e0c602c8361465d565b9150613e1782614f2e565b604082019050919050565b6000613e2f60208361465d565b9150613e3a82614f7d565b602082019050919050565b6000613e5260298361465d565b9150613e5d82614fa6565b604082019050919050565b6000613e75602f8361465d565b9150613e8082614ff5565b604082019050919050565b6000613e98603a8361465d565b9150613ea382615044565b604082019050919050565b6000613ebb60208361465d565b9150613ec682615093565b602082019050919050565b6000613ede60218361465d565b9150613ee9826150bc565b604082019050919050565b6000613f01600083614652565b9150613f0c8261510b565b600082019050919050565b6000613f24602f8361465d565b9150613f2f8261510e565b604082019050919050565b6000613f4760318361465d565b9150613f528261515d565b604082019050919050565b6000613f6a602c8361465d565b9150613f75826151ac565b604082019050919050565b6000613f8d60358361465d565b9150613f98826151fb565b604082019050919050565b6000613fb060308361465d565b9150613fbb8261524a565b604082019050919050565b6000613fd3603b8361465d565b9150613fde82615299565b604082019050919050565b6000613ff6600f8361465d565b9150614001826152e8565b602082019050919050565b6140158161480a565b82525050565b6140248161480a565b82525050565b60006140368285613b7b565b91506140428284613b7b565b91508190509392505050565b600061405982613ef4565b9150819050919050565b60006020820190506140786000830184613a8d565b92915050565b60006020820190506140936000830184613a7e565b92915050565b60006080820190506140ae6000830187613a8d565b6140bb6020830186613a8d565b6140c8604083018561401b565b81810360608301526140da8184613b09565b905095945050505050565b600060208201905081810360008301526140ff8184613a9c565b905092915050565b600060208201905061411c6000830184613afa565b92915050565b6000602082019050818103600083015261413c8184613b42565b905092915050565b6000602082019050818103600083015261415d81613bac565b9050919050565b6000602082019050818103600083015261417d81613bcf565b9050919050565b6000602082019050818103600083015261419d81613bf2565b9050919050565b600060208201905081810360008301526141bd81613c15565b9050919050565b600060208201905081810360008301526141dd81613c38565b9050919050565b600060208201905081810360008301526141fd81613c5b565b9050919050565b6000602082019050818103600083015261421d81613c7e565b9050919050565b6000602082019050818103600083015261423d81613ca1565b9050919050565b6000602082019050818103600083015261425d81613cc4565b9050919050565b6000602082019050818103600083015261427d81613ce7565b9050919050565b6000602082019050818103600083015261429d81613d0a565b9050919050565b600060208201905081810360008301526142bd81613d2d565b9050919050565b600060208201905081810360008301526142dd81613d50565b9050919050565b600060208201905081810360008301526142fd81613d73565b9050919050565b6000602082019050818103600083015261431d81613d96565b9050919050565b6000602082019050818103600083015261433d81613db9565b9050919050565b6000602082019050818103600083015261435d81613ddc565b9050919050565b6000602082019050818103600083015261437d81613dff565b9050919050565b6000602082019050818103600083015261439d81613e22565b9050919050565b600060208201905081810360008301526143bd81613e45565b9050919050565b600060208201905081810360008301526143dd81613e68565b9050919050565b600060208201905081810360008301526143fd81613e8b565b9050919050565b6000602082019050818103600083015261441d81613eae565b9050919050565b6000602082019050818103600083015261443d81613ed1565b9050919050565b6000602082019050818103600083015261445d81613f17565b9050919050565b6000602082019050818103600083015261447d81613f3a565b9050919050565b6000602082019050818103600083015261449d81613f5d565b9050919050565b600060208201905081810360008301526144bd81613f80565b9050919050565b600060208201905081810360008301526144dd81613fa3565b9050919050565b600060208201905081810360008301526144fd81613fc6565b9050919050565b6000602082019050818103600083015261451d81613fe9565b9050919050565b6000602082019050614539600083018461401b565b92915050565b600061454961455a565b905061455582826148be565b919050565b6000604051905090565b600067ffffffffffffffff82111561457f5761457e614a54565b5b602082029050602081019050919050565b600067ffffffffffffffff8211156145ab576145aa614a54565b5b6145b482614a9c565b9050602081019050919050565b600067ffffffffffffffff8211156145dc576145db614a54565b5b6145e582614a9c565b9050602081019050919050565b6000819050602082019050919050565b600081519050919050565b600081519050919050565b600081519050919050565b6000602082019050919050565b600082825260208201905092915050565b600082825260208201905092915050565b600081905092915050565b600082825260208201905092915050565b600081905092915050565b60006146848261480a565b915061468f8361480a565b9250827fffffffffffffffffffffffffffffffffffffffffffffffffffffffffffffffff038211156146c4576146c3614969565b5b828201905092915050565b60006146da8261480a565b91506146e58361480a565b9250826146f5576146f4614998565b5b828204905092915050565b600061470b8261480a565b91506147168361480a565b9250817fffffffffffffffffffffffffffffffffffffffffffffffffffffffffffffffff048311821515161561474f5761474e614969565b5b828202905092915050565b60006147658261480a565b91506147708361480a565b92508282101561478357614782614969565b5b828203905092915050565b6000614799826147ea565b9050919050565b60006147ab826147ea565b9050919050565b60008115159050919050565b60007fffffffff0000000000000000000000000000000000000000000000000000000082169050919050565b600073ffffffffffffffffffffffffffffffffffffffff82169050919050565b6000819050919050565b600061481f82614826565b9050919050565b600061483182614838565b9050919050565b6000614843826147ea565b9050919050565b82818337600083830152505050565b60005b8381101561487757808201518184015260208101905061485c565b83811115614886576000848401525b50505050565b600060028204905060018216806148a457607f821691505b602082108114156148b8576148b76149c7565b5b50919050565b6148c782614a9c565b810181811067ffffffffffffffff821117156148e6576148e5614a54565b5b80604052505050565b60006148fa8261480a565b91507fffffffffffffffffffffffffffffffffffffffffffffffffffffffffffffffff82141561492d5761492c614969565b5b600182019050919050565b60006149438261480a565b915061494e8361480a565b92508261495e5761495d614998565b5b828206905092915050565b7f4e487b7100000000000000000000000000000000000000000000000000000000600052601160045260246000fd5b7f4e487b7100000000000000000000000000000000000000000000000000000000600052601260045260246000fd5b7f4e487b7100000000000000000000000000000000000000000000000000000000600052602260045260246000fd5b7f4e487b7100000000000000000000000000000000000000000000000000000000600052603160045260246000fd5b7f4e487b7100000000000000000000000000000000000000000000000000000000600052603260045260246000fd5b7f4e487b7100000000000000000000000000000000000000000000000000000000600052604160045260246000fd5b600080fd5b600080fd5b600080fd5b600080fd5b600080fd5b6000601f19601f8301169050919050565b7f4552433732315061757361626c653a20746f6b656e207472616e73666572207760008201527f68696c6520706175736564000000000000000000000000000000000000000000602082015250565b7f50524553414c453a204f6e6c79207265676973746572656420637573746f6d6560008201527f72732063616e206d696e74210000000000000000000000000000000000000000602082015250565b7f455243373231456e756d657261626c653a206f776e657220696e646578206f7560008201527f74206f6620626f756e6473000000000000000000000000000000000000000000602082015250565b7f4552433732313a207472616e7366657220746f206e6f6e20455243373231526560008201527f63656976657220696d706c656d656e7465720000000000000000000000000000602082015250565b7f5041555341424c453a2050617573656400000000000000000000000000000000600082015250565b7f4d494e543a2043757272656e7420636f756e742065786365656473206d61786960008201527f6d756d20656c656d656e7420636f756e742e0000000000000000000000000000602082015250565b7f4f776e61626c653a206e6577206f776e657220697320746865207a65726f206160008201527f6464726573730000000000000000000000000000000000000000000000000000602082015250565b7f4552433732313a20746f6b656e20616c7265616479206d696e74656400000000600082015250565b7f57495448445241573a205472616e73666572206661696c65642e000000000000600082015250565b7f4552433732313a207472616e7366657220746f20746865207a65726f2061646460008201527f7265737300000000000000000000000000000000000000000000000000000000602082015250565b7f4552433732313a20617070726f766520746f2063616c6c657200000000000000600082015250565b7f4552433732313a206f70657261746f7220717565727920666f72206e6f6e657860008201527f697374656e7420746f6b656e0000000000000000000000000000000000000000602082015250565b7f4552433732313a20617070726f76652063616c6c6572206973206e6f74206f7760008201527f6e6572206e6f7220617070726f76656420666f7220616c6c0000000000000000602082015250565b7f4552433732313a2062616c616e636520717565727920666f7220746865207a6560008201527f726f206164647265737300000000000000000000000000000000000000000000602082015250565b7f4552433732313a206f776e657220717565727920666f72206e6f6e657869737460008201527f656e7420746f6b656e0000000000000000000000000000000000000000000000602082015250565b7f4552433732313a206d696e7420746f20746865207a65726f2061646472657373600082015250565b7f4d494e543a2043757272656e742076616c75652069732062656c6f772074686560008201527f2073616c6573207072696365206f6620426f626f476c79706856657273650000602082015250565b7f4552433732313a20617070726f76656420717565727920666f72206e6f6e657860008201527f697374656e7420746f6b656e0000000000000000000000000000000000000000602082015250565b7f4f776e61626c653a2063616c6c6572206973206e6f7420746865206f776e6572600082015250565b7f4552433732313a207472616e73666572206f6620746f6b656e2074686174206960008201527f73206e6f74206f776e0000000000000000000000000000000000000000000000602082015250565b7f4552433732314d657461646174613a2055524920717565727920666f72206e6f60008201527f6e6578697374656e7420746f6b656e0000000000000000000000000000000000602082015250565b7f4d494e543a2054686f73652069647320616c726561647920686176652062656560008201527f6e207573656420666f72206f7468657220637573746f6d657273000000000000602082015250565b7f57495448445241573a204e6f2062616c616e636520696e20636f6e7472616374600082015250565b7f4552433732313a20617070726f76616c20746f2063757272656e74206f776e6560008201527f7200000000000000000000000000000000000000000000000000000000000000602082015250565b50565b7f4d494e543a2043757272656e7420636f756e742065786365656473206d61786960008201527f6d756d206d696e7420636f756e742e0000000000000000000000000000000000602082015250565b7f4552433732313a207472616e736665722063616c6c6572206973206e6f74206f60008201527f776e6572206e6f7220617070726f766564000000000000000000000000000000602082015250565b7f455243373231456e756d657261626c653a20676c6f62616c20696e646578206f60008201527f7574206f6620626f756e64730000000000000000000000000000000000000000602082015250565b7f4d494e543a20506c6561736520676f20746f20746865204f70656e736561207460008201527f6f2062757920426f626f476c79706856657273652e0000000000000000000000602082015250565b7f4552433732314275726e61626c653a2063616c6c6572206973206e6f74206f7760008201527f6e6572206e6f7220617070726f76656400000000000000000000000000000000602082015250565b7f53414c45533a20506c656173652077616974206120626967206c6f6e6765722060008201527f6265666f726520627579696e6720426f626f476c79706873203b290000000000602082015250565b7f53414c45533a2053616c6520656e640000000000000000000000000000000000600082015250565b61531a8161478e565b811461532557600080fd5b50565b615331816147a0565b811461533c57600080fd5b50565b615348816147b2565b811461535357600080fd5b50565b61535f816147be565b811461536a57600080fd5b50565b6153768161480a565b811461538157600080fd5b5056fea2646970667358221220d4440110883a357a90ee3e8758fc5d4814b598f292c9f411b597dc134e3af06664736f6c63430008070033",
  "immutableReferences": {},
  "source": "// SPDX-License-Identifier: MIT\r\n\r\npragma solidity ^0.8.7;\r\n\r\nimport \"@openzeppelin/contracts/token/ERC721/ERC721.sol\";\r\nimport \"@openzeppelin/contracts/token/ERC721/extensions/ERC721Enumerable.sol\";\r\nimport \"@openzeppelin/contracts/token/ERC721/extensions/ERC721Burnable.sol\";\r\nimport \"@openzeppelin/contracts/access/Ownable.sol\";\r\nimport \"@openzeppelin/contracts/utils/math/SafeMath.sol\";\r\nimport \"@openzeppelin/contracts/utils/Counters.sol\";\r\nimport \"./ERC721Pausable.sol\";\r\n\r\ncontract BoboGlyph is ERC721Enumerable, Ownable, ERC721Burnable, ERC721Pausable {\r\n\r\n    using SafeMath for uint256;\r\n    using Counters for Counters.Counter;\r\n\r\n    Counters.Counter private _tokenIdTracker;\r\n\r\n    bool public SALE_OPEN = false;\r\n\r\n    uint256 private constant PRICE = 8 * 10**16; // 0.08ETH Per BoboGlyph\r\n    uint256 private constant PRICE_PRESALE = 5 * 10**16; // 0.05ETH Per BoboGlyph\r\n    uint256 private constant PRICE_PREMINT = 0; // Free Per BoboGlyph\r\n\r\n    uint256 private constant MAX_ELEMENTS = 1125; // 1125 BoboGlyphs for Entire Collection.\r\n    uint256 private constant MAX_ELEMENTS_PRESALE = 333; // 333 BoboGlyphs for Pre Sale.\r\n    uint256 private constant MAX_ELEMENTS_PREMINT = 8; // 8 BoboGlyphs for GiveAway.\r\n\r\n    uint256 private constant MAX_MINT = 20; // Upper Limit per Mint is 20\r\n    uint256 private constant MAX_MINT_PRESALE = 7; // Upper Limit per Mint is 5\r\n    uint256 private constant MAX_MINT_PREMINT = 8; // Upper Limit per Mint is 8\r\n\r\n    uint256 private _price;\r\n    uint256 private _maxElements;\r\n    uint256 private _maxMint;\r\n\r\n    mapping(uint256 => bool) private _isOccupiedId;\r\n    uint256[] private _occupiedList;\r\n\r\n    mapping(address => bool) public _whitelist;\r\n    bool private _isPresale;\r\n\r\n    string private baseTokenURI;\r\n\r\n    address private developerAddress = 0xDEA5e36DC33A3aed5CA275E463eDd283F680D1c6;\r\n    address private designerAddress = 0xB1A37DE9227eB305eCAD81A6C0a10eBE36C50653;\r\n    address private ownerAddress = 0x42a65A7a544E66423aa1530780d90c90dE2B41Ea;\r\n\r\n    event OnePieceCreated(address to, uint256 indexed id);\r\n\r\n    modifier saleIsOpen {\r\n        if (_msgSender() != owner()) {\r\n            require(SALE_OPEN == true, \"SALES: Please wait a big longer before buying BoboGlyphs ;)\");\r\n        }\r\n        require(_totalSupply() <= MAX_ELEMENTS, \"SALES: Sale end\");\r\n\r\n        if (_msgSender() != owner()) {\r\n            require(!paused(), \"PAUSABLE: Paused\");\r\n        }\r\n        _;\r\n    }\r\n\r\n    constructor (string memory baseURI) ERC721(\"Boboglyphs\", \"BBGL\") {\r\n        setBaseURI(baseURI);\r\n\r\n        _price = PRICE_PREMINT;\r\n        _maxElements = MAX_ELEMENTS_PREMINT;\r\n        _maxMint = MAX_MINT_PREMINT;\r\n    }\r\n\r\n    function mint(address payable _to, uint256[] memory _ids) public payable saleIsOpen {\r\n        uint256 total = _totalSupply();\r\n\r\n        if (_isPresale == true) {\r\n            require(_whitelist[_to] == true, \"PRESALE: Only registered customers can mint!\");\r\n        }\r\n\r\n        require(total + _ids.length <= _maxElements, \"MINT: Current count exceeds maximum element count.\");\r\n        require(total <= _maxElements, \"MINT: Please go to the Opensea to buy BoboGlyphVerse.\");\r\n        require(_ids.length <= _maxMint, \"MINT: Current count exceeds maximum mint count.\");\r\n\r\n        if (_to != owner()) {\r\n            require(msg.value >= price(_ids.length), \"MINT: Current value is below the sales price of BoboGlyphVerse\");\r\n        }\r\n\r\n        for (uint256 i = 0; i < _ids.length; i++) {\r\n            require(_isOccupiedId[_ids[i]] == false, \"MINT: Those ids already have been used for other customers\");\r\n        }\r\n\r\n        for (uint256 i = 0; i < _ids.length; i++) {\r\n            _mintAnElement(_to, _ids[i]);\r\n        }\r\n\r\n        _widthdraw(owner(), address(this).balance);\r\n    }\r\n\r\n    function _mintAnElement(address payable _to, uint256 _id) private {\r\n        _tokenIdTracker.increment();\r\n        _safeMint(_to, _id);\r\n        _isOccupiedId[_id] = true;\r\n        _occupiedList.push(_id);\r\n\r\n        emit OnePieceCreated(_to, _id);\r\n    }\r\n\r\n    function startPreSale() public onlyOwner {\r\n        _isPresale = true;\r\n\r\n        SALE_OPEN = true;\r\n\r\n        _price = PRICE_PRESALE;\r\n        _maxElements = MAX_ELEMENTS_PRESALE + MAX_ELEMENTS_PREMINT;\r\n        _maxMint = MAX_MINT_PRESALE;\r\n    }\r\n\r\n    function startPublicSale() public onlyOwner {\r\n        _isPresale = false;\r\n\r\n        SALE_OPEN = true;\r\n\r\n        _price = PRICE;\r\n        _maxElements = MAX_ELEMENTS;\r\n        _maxMint = MAX_MINT;\r\n    }\r\n\r\n    function flipSaleState() public onlyOwner {\r\n        SALE_OPEN = !SALE_OPEN;\r\n    }\r\n\r\n    function addToWhitelist(address attender) public onlyOwner {\r\n        _whitelist[attender] = true;\r\n    }\r\n\r\n    function removeFromWhitelist(address attender) public onlyOwner {\r\n        _whitelist[attender] = false;\r\n    }\r\n\r\n    function setBaseURI(string memory baseURI) public onlyOwner {\r\n        baseTokenURI = baseURI;\r\n    }\r\n\r\n    function _baseURI() internal view virtual override returns (string memory) {\r\n        return baseTokenURI;\r\n    }\r\n\r\n    function price(uint256 _count) public view returns (uint256) {\r\n        return _price.mul(_count);\r\n    }\r\n\r\n    function _totalSupply() internal view returns (uint) {\r\n        return _tokenIdTracker.current();\r\n    }\r\n\r\n    function occupiedList() public view returns (uint256[] memory) {\r\n        return _occupiedList;\r\n    }\r\n\r\n    function maxMint() public view returns (uint256) {\r\n        return _maxMint;\r\n    }\r\n\r\n    function maxSales() public view returns (uint256) {\r\n        return _maxElements;\r\n    }\r\n\r\n    function maxSupply() public pure returns (uint256) {\r\n        return MAX_ELEMENTS;\r\n    }\r\n\r\n    function raised() public view returns (uint256) {\r\n        return address(this).balance;\r\n    }\r\n\r\n    function getTokenIdsOfWallet(address _owner) external view returns (uint256[] memory) {\r\n        uint256 tokenCount = balanceOf(_owner);\r\n\r\n        uint256[] memory tokensId = new uint256[](tokenCount);\r\n\r\n        for (uint256 i = 0; i < tokenCount; i++) {\r\n            tokensId[i] = tokenOfOwnerByIndex(_owner, i);\r\n        }\r\n\r\n        return tokensId;\r\n    }\r\n\r\n    function withdrawAll() public payable onlyOwner {\r\n        uint256 balance = address(this).balance;\r\n        require(balance > 0, \"WITHDRAW: No balance in contract\");\r\n\r\n        _widthdraw(developerAddress, balance.mul(3).div(10**2));\r\n        _widthdraw(designerAddress, balance.mul(2).div(10**2));\r\n        _widthdraw(ownerAddress, address(this).balance);\r\n    }\r\n\r\n    function _widthdraw(address _address, uint256 _amount) private {\r\n        (bool success, ) = _address.call{value: _amount}(\"\");\r\n        require(success, \"WITHDRAW: Transfer failed.\");\r\n    }\r\n\r\n    function _beforeTokenTransfer(\r\n        address from,\r\n        address to,\r\n        uint256 tokenId\r\n    ) internal virtual override(ERC721, ERC721Enumerable, ERC721Pausable) {\r\n        super._beforeTokenTransfer(from, to, tokenId);\r\n    }\r\n\r\n    function supportsInterface(bytes4 interfaceId) public view virtual override(ERC721, ERC721Enumerable) returns (bool) {\r\n        return super.supportsInterface(interfaceId);\r\n    }\r\n}",
  "sourcePath": "E:\\Blockchain\\anony\\contracts\\BoboGlyph.sol",
  "compiler": {
    "name": "solc",
    "version": "0.8.7+commit.e28d00a7.Emscripten.clang"
  },
  "schemaVersion": "3.4.3",
  "updatedAt": "2021-11-12T18:54:00.889Z",
  "devdoc": {
    "kind": "dev",
    "methods": {
      "approve(address,uint256)": {
        "details": "See {IERC721-approve}."
      },
      "balanceOf(address)": {
        "details": "See {IERC721-balanceOf}."
      },
      "burn(uint256)": {
        "details": "Burns `tokenId`. See {ERC721-_burn}. Requirements: - The caller must own `tokenId` or be an approved operator."
      },
      "getApproved(uint256)": {
        "details": "See {IERC721-getApproved}."
      },
      "isApprovedForAll(address,address)": {
        "details": "See {IERC721-isApprovedForAll}."
      },
      "name()": {
        "details": "See {IERC721Metadata-name}."
      },
      "owner()": {
        "details": "Returns the address of the current owner."
      },
      "ownerOf(uint256)": {
        "details": "See {IERC721-ownerOf}."
      },
      "paused()": {
        "details": "Returns true if the contract is paused, and false otherwise."
      },
      "renounceOwnership()": {
        "details": "Leaves the contract without owner. It will not be possible to call `onlyOwner` functions anymore. Can only be called by the current owner. NOTE: Renouncing ownership will leave the contract without an owner, thereby removing any functionality that is only available to the owner."
      },
      "safeTransferFrom(address,address,uint256)": {
        "details": "See {IERC721-safeTransferFrom}."
      },
      "safeTransferFrom(address,address,uint256,bytes)": {
        "details": "See {IERC721-safeTransferFrom}."
      },
      "setApprovalForAll(address,bool)": {
        "details": "See {IERC721-setApprovalForAll}."
      },
      "symbol()": {
        "details": "See {IERC721Metadata-symbol}."
      },
      "tokenByIndex(uint256)": {
        "details": "See {IERC721Enumerable-tokenByIndex}."
      },
      "tokenOfOwnerByIndex(address,uint256)": {
        "details": "See {IERC721Enumerable-tokenOfOwnerByIndex}."
      },
      "tokenURI(uint256)": {
        "details": "See {IERC721Metadata-tokenURI}."
      },
      "totalSupply()": {
        "details": "See {IERC721Enumerable-totalSupply}."
      },
      "transferFrom(address,address,uint256)": {
        "details": "See {IERC721-transferFrom}."
      },
      "transferOwnership(address)": {
        "details": "Transfers ownership of the contract to a new account (`newOwner`). Can only be called by the current owner."
      }
    },
    "version": 1
  },
  "userdoc": {
    "kind": "user",
    "methods": {},
    "version": 1
  }
}